{
  "contractName": "PatientWithConditionStruct",
  "abi": [
    {
      "anonymous": false,
      "inputs": [
        {
          "indexed": false,
          "internalType": "string",
          "name": "whatChanged",
          "type": "string"
        }
      ],
      "name": "patientChanged",
      "type": "event"
    },
    {
      "constant": true,
      "inputs": [],
      "name": "conditionCounter",
      "outputs": [
        {
          "internalType": "uint256",
          "name": "",
          "type": "uint256"
        }
      ],
      "payable": false,
      "stateMutability": "view",
      "type": "function"
    },
    {
      "constant": true,
      "inputs": [],
      "name": "dateOfBirth",
      "outputs": [
        {
          "internalType": "string",
          "name": "",
          "type": "string"
        }
      ],
      "payable": false,
      "stateMutability": "view",
      "type": "function"
    },
    {
      "constant": true,
      "inputs": [],
      "name": "gender",
      "outputs": [
        {
          "internalType": "string",
          "name": "",
          "type": "string"
        }
      ],
      "payable": false,
      "stateMutability": "view",
      "type": "function"
    },
    {
      "constant": true,
      "inputs": [],
      "name": "name",
      "outputs": [
        {
          "internalType": "string",
          "name": "",
          "type": "string"
        }
      ],
      "payable": false,
      "stateMutability": "view",
      "type": "function"
    },
    {
      "constant": false,
      "inputs": [
        {
          "internalType": "string",
          "name": "_name",
          "type": "string"
        }
      ],
      "name": "setName",
      "outputs": [],
      "payable": false,
      "stateMutability": "nonpayable",
      "type": "function"
    },
    {
      "constant": false,
      "inputs": [
        {
          "internalType": "string",
          "name": "_dateOfBirth",
          "type": "string"
        }
      ],
      "name": "setDateOfBirth",
      "outputs": [],
      "payable": false,
      "stateMutability": "nonpayable",
      "type": "function"
    },
    {
      "constant": false,
      "inputs": [
        {
          "internalType": "string",
          "name": "_gender",
          "type": "string"
        }
      ],
      "name": "setGender",
      "outputs": [],
      "payable": false,
      "stateMutability": "nonpayable",
      "type": "function"
    },
    {
      "constant": false,
      "inputs": [
        {
          "internalType": "string",
          "name": "_name",
          "type": "string"
        },
        {
          "internalType": "string",
          "name": "_dateOfBirth",
          "type": "string"
        },
        {
          "internalType": "string",
          "name": "_gender",
          "type": "string"
        },
        {
          "internalType": "string",
          "name": "_condition",
          "type": "string"
        }
      ],
      "name": "setPatient",
      "outputs": [],
      "payable": false,
      "stateMutability": "nonpayable",
      "type": "function"
    },
    {
      "constant": false,
      "inputs": [
        {
          "internalType": "string",
          "name": "_id",
          "type": "string"
        },
        {
          "internalType": "string",
          "name": "_desc",
          "type": "string"
        }
      ],
      "name": "addCondition",
      "outputs": [],
      "payable": false,
      "stateMutability": "nonpayable",
      "type": "function"
    },
    {
      "constant": true,
      "inputs": [
        {
          "internalType": "uint256",
          "name": "index",
          "type": "uint256"
        }
      ],
      "name": "getCondition",
      "outputs": [
        {
          "internalType": "string",
          "name": "_id",
          "type": "string"
        },
        {
          "internalType": "string",
          "name": "_desc",
          "type": "string"
        }
      ],
      "payable": false,
      "stateMutability": "view",
      "type": "function"
    }
  ],
  "bytecode": "0x6080604052600060045534801561001557600080fd5b506111a7806100256000396000f3fe608060405234801561001057600080fd5b506004361061009e5760003560e01c806379caad861161006657806379caad86146103d45780637bf212f8146104575780637c5228cd1461056a578063c47f0027146107ea578063f212e265146108a55761009e565b806306fdde03146100a35780633d4bc4ba14610126578063501bc1f814610144578063615dac4e146101ff578063642ccbac14610282575b600080fd5b6100ab610960565b6040518080602001828103825283818151815260200191508051906020019080838360005b838110156100eb5780820151818401526020810190506100d0565b50505050905090810190601f1680156101185780820380516001836020036101000a031916815260200191505b509250505060405180910390f35b61012e6109fe565b6040518082815260200191505060405180910390f35b6101fd6004803603602081101561015a57600080fd5b810190808035906020019064010000000081111561017757600080fd5b82018360208201111561018957600080fd5b803590602001918460018302840111640100000000831117156101ab57600080fd5b91908080601f016020809104026020016040519081016040528093929190818152602001838380828437600081840152601f19601f820116905080830192505050505050509192919290505050610a04565b005b610207610a86565b6040518080602001828103825283818151815260200191508051906020019080838360005b8381101561024757808201518184015260208101905061022c565b50505050905090810190601f1680156102745780820380516001836020036101000a031916815260200191505b509250505060405180910390f35b6103d26004803603604081101561029857600080fd5b81019080803590602001906401000000008111156102b557600080fd5b8201836020820111156102c757600080fd5b803590602001918460018302840111640100000000831117156102e957600080fd5b91908080601f016020809104026020016040519081016040528093929190818152602001838380828437600081840152601f19601f8201169050808301925050505050505091929192908035906020019064010000000081111561034c57600080fd5b82018360208201111561035e57600080fd5b8035906020019184600183028401116401000000008311171561038057600080fd5b91908080601f016020809104026020016040519081016040528093929190818152602001838380828437600081840152601f19601f820116905080830192505050505050509192919290505050610b24565b005b6103dc610c09565b6040518080602001828103825283818151815260200191508051906020019080838360005b8381101561041c578082015181840152602081019050610401565b50505050905090810190601f1680156104495780820380516001836020036101000a031916815260200191505b509250505060405180910390f35b6104836004803603602081101561046d57600080fd5b8101908080359060200190929190505050610ca7565b604051808060200180602001838103835285818151815260200191508051906020019080838360005b838110156104c75780820151818401526020810190506104ac565b50505050905090810190601f1680156104f45780820380516001836020036101000a031916815260200191505b50838103825284818151815260200191508051906020019080838360005b8381101561052d578082015181840152602081019050610512565b50505050905090810190601f16801561055a5780820380516001836020036101000a031916815260200191505b5094505050505060405180910390f35b6107e86004803603608081101561058057600080fd5b810190808035906020019064010000000081111561059d57600080fd5b8201836020820111156105af57600080fd5b803590602001918460018302840111640100000000831117156105d157600080fd5b91908080601f016020809104026020016040519081016040528093929190818152602001838380828437600081840152601f19601f8201169050808301925050505050505091929192908035906020019064010000000081111561063457600080fd5b82018360208201111561064657600080fd5b8035906020019184600183028401116401000000008311171561066857600080fd5b91908080601f016020809104026020016040519081016040528093929190818152602001838380828437600081840152601f19601f820116905080830192505050505050509192919290803590602001906401000000008111156106cb57600080fd5b8201836020820111156106dd57600080fd5b803590602001918460018302840111640100000000831117156106ff57600080fd5b91908080601f016020809104026020016040519081016040528093929190818152602001838380828437600081840152601f19601f8201169050808301925050505050505091929192908035906020019064010000000081111561076257600080fd5b82018360208201111561077457600080fd5b8035906020019184600183028401116401000000008311171561079657600080fd5b91908080601f016020809104026020016040519081016040528093929190818152602001838380828437600081840152601f19601f820116905080830192505050505050509192919290505050610e1d565b005b6108a36004803603602081101561080057600080fd5b810190808035906020019064010000000081111561081d57600080fd5b82018360208201111561082f57600080fd5b8035906020019184600183028401116401000000008311171561085157600080fd5b91908080601f016020809104026020016040519081016040528093929190818152602001838380828437600081840152601f19601f820116905080830192505050505050509192919290505050610f49565b005b61095e600480360360208110156108bb57600080fd5b81019080803590602001906401000000008111156108d857600080fd5b8201836020820111156108ea57600080fd5b8035906020019184600183028401116401000000008311171561090c57600080fd5b91908080601f016020809104026020016040519081016040528093929190818152602001838380828437600081840152601f19601f820116905080830192505050505050509192919290505050610fcb565b005b60008054600181600116156101000203166002900480601f0160208091040260200160405190810160405280929190818152602001828054600181600116156101000203166002900480156109f65780601f106109cb576101008083540402835291602001916109f6565b820191906000526020600020905b8154815290600101906020018083116109d957829003601f168201915b505050505081565b60045481565b8060019080519060200190610a1a92919061104d565b507f7c17688976694d85624217bcad577e24ddf45c144eba4cb83c56d5e6c581760c6040518080602001828103825260138152602001807f646174654f664269727468206368616e6765640000000000000000000000000081525060200191505060405180910390a150565b60018054600181600116156101000203166002900480601f016020809104026020016040519081016040528092919081815260200182805460018160011615610100020316600290048015610b1c5780601f10610af157610100808354040283529160200191610b1c565b820191906000526020600020905b815481529060010190602001808311610aff57829003601f168201915b505050505081565b6040518060400160405280838152602001828152506003600060045481526020019081526020016000206000820151816000019080519060200190610b6a9291906110cd565b506020820151816001019080519060200190610b879291906110cd565b509050506004600081548092919060010191905055507f7c17688976694d85624217bcad577e24ddf45c144eba4cb83c56d5e6c581760c60405180806020018281038252600f8152602001807f636f6e646974696f6e206164646564000000000000000000000000000000000081525060200191505060405180910390a15050565b60028054600181600116156101000203166002900480601f016020809104026020016040519081016040528092919081815260200182805460018160011615610100020316600290048015610c9f5780601f10610c7457610100808354040283529160200191610c9f565b820191906000526020600020905b815481529060010190602001808311610c8257829003601f168201915b505050505081565b6060806060600360008581526020019081526020016000206000018054600181600116156101000203166002900480601f016020809104026020016040519081016040528092919081815260200182805460018160011615610100020316600290048015610d565780601f10610d2b57610100808354040283529160200191610d56565b820191906000526020600020905b815481529060010190602001808311610d3957829003601f168201915b505050505090506060600360008681526020019081526020016000206001018054600181600116156101000203166002900480601f016020809104026020016040519081016040528092919081815260200182805460018160011615610100020316600290048015610e095780601f10610dde57610100808354040283529160200191610e09565b820191906000526020600020905b815481529060010190602001808311610dec57829003601f168201915b505050505090508181935093505050915091565b8360009080519060200190610e3392919061104d565b508260019080519060200190610e4a92919061104d565b508160029080519060200190610e6192919061104d565b506040518060400160405280828152602001828152506003600060045481526020019081526020016000206000820151816000019080519060200190610ea89291906110cd565b506020820151816001019080519060200190610ec59291906110cd565b509050506004600081548092919060010191905055507f7c17688976694d85624217bcad577e24ddf45c144eba4cb83c56d5e6c581760c60405180806020018281038252600f8152602001807f50617469656e74204368616e676564000000000000000000000000000000000081525060200191505060405180910390a150505050565b8060009080519060200190610f5f92919061104d565b507f7c17688976694d85624217bcad577e24ddf45c144eba4cb83c56d5e6c581760c60405180806020018281038252600c8152602001807f6e616d65206368616e676564000000000000000000000000000000000000000081525060200191505060405180910390a150565b8060029080519060200190610fe192919061104d565b507f7c17688976694d85624217bcad577e24ddf45c144eba4cb83c56d5e6c581760c60405180806020018281038252600e8152602001807f67656e646572206368616e67656400000000000000000000000000000000000081525060200191505060405180910390a150565b828054600181600116156101000203166002900490600052602060002090601f016020900481019282601f1061108e57805160ff19168380011785556110bc565b828001600101855582156110bc579182015b828111156110bb5782518255916020019190600101906110a0565b5b5090506110c9919061114d565b5090565b828054600181600116156101000203166002900490600052602060002090601f016020900481019282601f1061110e57805160ff191683800117855561113c565b8280016001018555821561113c579182015b8281111561113b578251825591602001919060010190611120565b5b509050611149919061114d565b5090565b61116f91905b8082111561116b576000816000905550600101611153565b5090565b9056fea265627a7a723158202b4a1af06acea435200407378508be2f0b1893c6eb804c2928ee7bc4254f040564736f6c63430005100032",
  "source": "pragma solidity >=0.4.2;\r\n//import \"./Condition.sol\";\r\n\r\ncontract PatientWithConditionStruct {\r\n\r\n  string public name;\r\n  string public dateOfBirth;\r\n  string public gender;\r\n  //Condition[] conditions;\r\n\r\n  struct Condition{\r\n    // condition id\r\n    string id;\r\n    // condition description\r\n    string desc;\r\n  }\r\n\r\n  mapping (uint => Condition) conditions;\r\n  uint public conditionCounter = 0;\r\n\r\n  // Event that is fired when patient is changed\r\n  event patientChanged(string whatChanged);\r\n\r\n  /*function Patient() public{\r\n    conditions = new Condition[](10);\r\n  }*/\r\n\r\n  // FAMILY^GIVEN^MIDDLE\r\n  function setName(string memory _name) public {\r\n    name = _name;\r\n    emit patientChanged(\"name changed\"); // fire the event\r\n  }\r\n  // YYYYMMDD\r\n  function setDateOfBirth(string memory _dateOfBirth) public{\r\n    dateOfBirth = _dateOfBirth;\r\n    emit patientChanged(\"dateOfBirth changed\"); // fire the event\r\n  }\r\n  // M,F,U,O\r\n  function setGender(string memory _gender) public{\r\n    gender = _gender;\r\n    emit patientChanged(\"gender changed\"); // fire the event\r\n  }\r\n\r\n  function setPatient(string memory _name, string memory _dateOfBirth, string memory _gender, string memory _condition) public {\r\n    name = _name;\r\n    dateOfBirth = _dateOfBirth;\r\n    gender = _gender;\r\n    conditions[conditionCounter] = Condition(_condition, _condition);\r\n    conditionCounter++;\r\n    /*Condition c = new Condition(_condition, _condition);\r\n    conditions.push(c);*/\r\n    emit patientChanged(\"Patient Changed\"); // fire the event\r\n  }\r\n\r\n  function addCondition(string memory _id, string memory _desc) public{\r\n    /*Condition c = new Condition(_id, _desc);\r\n    conditions.push(c);*/\r\n    conditions[conditionCounter] = Condition(_id, _desc);\r\n    conditionCounter++;\r\n    emit patientChanged(\"condition added\");\r\n  }\r\n\r\n  function getCondition(uint index) public view returns (string memory _id, string memory _desc) {\r\n    string memory id = conditions[index].id;\r\n    string memory desc = conditions[index].desc;\r\n\r\n    return (id, desc);\r\n  }\r\n}\r\n",
  "sourcePath": "/home/obu/Desktop/CIP/eHealthFinalNew/contracts/PatientWithConditionContract.sol",
  "compiler": {
    "name": "solc",
    "version": "0.5.16+commit.9c3226ce.Emscripten.clang"
  },
  "schemaVersion": "3.0.23",
  "updatedAt": "2021-03-24T12:07:31.708Z",
  "devdoc": {
    "methods": {}
  },
  "userdoc": {
    "methods": {}
  }
}