{
  "contractName": "Patient",
  "abi": [
    {
      "anonymous": false,
      "inputs": [
        {
          "indexed": false,
          "internalType": "string",
          "name": "whatChanged",
          "type": "string"
        }
      ],
      "name": "patientChanged",
      "type": "event"
    },
    {
      "constant": true,
      "inputs": [],
      "name": "EHRDate",
      "outputs": [
        {
          "internalType": "string",
          "name": "",
          "type": "string"
        }
      ],
      "payable": false,
      "stateMutability": "view",
      "type": "function"
    },
    {
      "constant": true,
      "inputs": [],
      "name": "aadhar",
      "outputs": [
        {
          "internalType": "string",
          "name": "",
          "type": "string"
        }
      ],
      "payable": false,
      "stateMutability": "view",
      "type": "function"
    },
    {
      "constant": true,
      "inputs": [],
      "name": "address1",
      "outputs": [
        {
          "internalType": "string",
          "name": "",
          "type": "string"
        }
      ],
      "payable": false,
      "stateMutability": "view",
      "type": "function"
    },
    {
      "constant": true,
      "inputs": [],
      "name": "allergies",
      "outputs": [
        {
          "internalType": "string",
          "name": "",
          "type": "string"
        }
      ],
      "payable": false,
      "stateMutability": "view",
      "type": "function"
    },
    {
      "constant": true,
      "inputs": [],
      "name": "bedNo",
      "outputs": [
        {
          "internalType": "string",
          "name": "",
          "type": "string"
        }
      ],
      "payable": false,
      "stateMutability": "view",
      "type": "function"
    },
    {
      "constant": true,
      "inputs": [],
      "name": "conditionDesc",
      "outputs": [
        {
          "internalType": "string",
          "name": "",
          "type": "string"
        }
      ],
      "payable": false,
      "stateMutability": "view",
      "type": "function"
    },
    {
      "constant": true,
      "inputs": [],
      "name": "contact",
      "outputs": [
        {
          "internalType": "string",
          "name": "",
          "type": "string"
        }
      ],
      "payable": false,
      "stateMutability": "view",
      "type": "function"
    },
    {
      "constant": true,
      "inputs": [],
      "name": "dateOfAdmission",
      "outputs": [
        {
          "internalType": "string",
          "name": "",
          "type": "string"
        }
      ],
      "payable": false,
      "stateMutability": "view",
      "type": "function"
    },
    {
      "constant": true,
      "inputs": [],
      "name": "dateOfBirth",
      "outputs": [
        {
          "internalType": "string",
          "name": "",
          "type": "string"
        }
      ],
      "payable": false,
      "stateMutability": "view",
      "type": "function"
    },
    {
      "constant": true,
      "inputs": [],
      "name": "gender",
      "outputs": [
        {
          "internalType": "string",
          "name": "",
          "type": "string"
        }
      ],
      "payable": false,
      "stateMutability": "view",
      "type": "function"
    },
    {
      "constant": true,
      "inputs": [],
      "name": "hospName",
      "outputs": [
        {
          "internalType": "string",
          "name": "",
          "type": "string"
        }
      ],
      "payable": false,
      "stateMutability": "view",
      "type": "function"
    },
    {
      "constant": true,
      "inputs": [],
      "name": "image",
      "outputs": [
        {
          "internalType": "string",
          "name": "",
          "type": "string"
        }
      ],
      "payable": false,
      "stateMutability": "view",
      "type": "function"
    },
    {
      "constant": true,
      "inputs": [],
      "name": "name",
      "outputs": [
        {
          "internalType": "string",
          "name": "",
          "type": "string"
        }
      ],
      "payable": false,
      "stateMutability": "view",
      "type": "function"
    },
    {
      "constant": true,
      "inputs": [],
      "name": "physician",
      "outputs": [
        {
          "internalType": "string",
          "name": "",
          "type": "string"
        }
      ],
      "payable": false,
      "stateMutability": "view",
      "type": "function"
    },
    {
      "constant": false,
      "inputs": [
        {
          "internalType": "string",
          "name": "_name",
          "type": "string"
        }
      ],
      "name": "setName",
      "outputs": [],
      "payable": false,
      "stateMutability": "nonpayable",
      "type": "function"
    },
    {
      "constant": false,
      "inputs": [
        {
          "internalType": "string",
          "name": "_dateOfBirth",
          "type": "string"
        }
      ],
      "name": "setDateOfBirth",
      "outputs": [],
      "payable": false,
      "stateMutability": "nonpayable",
      "type": "function"
    },
    {
      "constant": false,
      "inputs": [
        {
          "internalType": "string",
          "name": "_gender",
          "type": "string"
        }
      ],
      "name": "setGender",
      "outputs": [],
      "payable": false,
      "stateMutability": "nonpayable",
      "type": "function"
    },
    {
      "constant": false,
      "inputs": [
        {
          "internalType": "string",
          "name": "_image",
          "type": "string"
        }
      ],
      "name": "setImage",
      "outputs": [],
      "payable": false,
      "stateMutability": "nonpayable",
      "type": "function"
    },
    {
      "constant": false,
      "inputs": [
        {
          "internalType": "string",
          "name": "_dateOfAdmission",
          "type": "string"
        }
      ],
      "name": "setDateOfAdmission",
      "outputs": [],
      "payable": false,
      "stateMutability": "nonpayable",
      "type": "function"
    },
    {
      "constant": false,
      "inputs": [
        {
          "internalType": "string",
          "name": "_name",
          "type": "string"
        },
        {
          "internalType": "string",
          "name": "_dateOfBirth",
          "type": "string"
        },
        {
          "internalType": "string",
          "name": "_gender",
          "type": "string"
        },
        {
          "internalType": "string",
          "name": "_condition",
          "type": "string"
        },
        {
          "internalType": "string",
          "name": "_conditionDesc",
          "type": "string"
        },
        {
          "internalType": "string",
          "name": "_allergies",
          "type": "string"
        },
        {
          "internalType": "string",
          "name": "_physician",
          "type": "string"
        },
        {
          "internalType": "string",
          "name": "_aadhar",
          "type": "string"
        },
        {
          "internalType": "string",
          "name": "_address1",
          "type": "string"
        },
        {
          "internalType": "string",
          "name": "_contact",
          "type": "string"
        },
        {
          "internalType": "string",
          "name": "_dateOfAdmission",
          "type": "string"
        },
        {
          "internalType": "string",
          "name": "_hospName",
          "type": "string"
        },
        {
          "internalType": "string",
          "name": "_bedNo",
          "type": "string"
        },
        {
          "internalType": "string",
          "name": "_EHRDate",
          "type": "string"
        },
        {
          "internalType": "string",
          "name": "_image",
          "type": "string"
        }
      ],
      "name": "setPatient",
      "outputs": [],
      "payable": false,
      "stateMutability": "nonpayable",
      "type": "function"
    },
    {
      "constant": false,
      "inputs": [
        {
          "internalType": "string",
          "name": "_conditionDesc",
          "type": "string"
        }
      ],
      "name": "setDescription",
      "outputs": [],
      "payable": false,
      "stateMutability": "nonpayable",
      "type": "function"
    },
    {
      "constant": false,
      "inputs": [
        {
          "internalType": "string",
          "name": "_id",
          "type": "string"
        },
        {
          "internalType": "string",
          "name": "_desc",
          "type": "string"
        }
      ],
      "name": "addCondition",
      "outputs": [],
      "payable": false,
      "stateMutability": "nonpayable",
      "type": "function"
    },
    {
      "constant": false,
      "inputs": [],
      "name": "getCondition",
      "outputs": [
        {
          "internalType": "address[]",
          "name": "",
          "type": "address[]"
        }
      ],
      "payable": false,
      "stateMutability": "nonpayable",
      "type": "function"
    },
    {
      "constant": true,
      "inputs": [],
      "name": "getAllergy",
      "outputs": [
        {
          "internalType": "string",
          "name": "",
          "type": "string"
        }
      ],
      "payable": false,
      "stateMutability": "view",
      "type": "function"
    },
    {
      "constant": true,
      "inputs": [],
      "name": "getPhysician",
      "outputs": [
        {
          "internalType": "string",
          "name": "",
          "type": "string"
        }
      ],
      "payable": false,
      "stateMutability": "view",
      "type": "function"
    },
    {
      "constant": false,
      "inputs": [
        {
          "internalType": "string",
          "name": "_allergies",
          "type": "string"
        }
      ],
      "name": "setAllergies",
      "outputs": [],
      "payable": false,
      "stateMutability": "nonpayable",
      "type": "function"
    },
    {
      "constant": false,
      "inputs": [
        {
          "internalType": "string",
          "name": "_physician",
          "type": "string"
        }
      ],
      "name": "setPhysician",
      "outputs": [],
      "payable": false,
      "stateMutability": "nonpayable",
      "type": "function"
    },
    {
      "constant": false,
      "inputs": [
        {
          "internalType": "string",
          "name": "_aadhar",
          "type": "string"
        }
      ],
      "name": "setAadhar",
      "outputs": [],
      "payable": false,
      "stateMutability": "nonpayable",
      "type": "function"
    },
    {
      "constant": false,
      "inputs": [
        {
          "internalType": "string",
          "name": "_address1",
          "type": "string"
        }
      ],
      "name": "setAddress",
      "outputs": [],
      "payable": false,
      "stateMutability": "nonpayable",
      "type": "function"
    },
    {
      "constant": false,
      "inputs": [
        {
          "internalType": "string",
          "name": "_contact",
          "type": "string"
        }
      ],
      "name": "setContact",
      "outputs": [],
      "payable": false,
      "stateMutability": "nonpayable",
      "type": "function"
    }
  ],
  "bytecode": "0x608060405260405180602001604052806000815250600090805190602001906200002b92919062000248565b5060405180602001604052806000815250600190805190602001906200005392919062000248565b5060405180602001604052806000815250600290805190602001906200007b92919062000248565b506040518060200160405280600081525060039080519060200190620000a392919062000248565b506040518060200160405280600081525060059080519060200190620000cb92919062000248565b506040518060200160405280600081525060069080519060200190620000f392919062000248565b5060405180602001604052806000815250600790805190602001906200011b92919062000248565b5060405180602001604052806000815250600890805190602001906200014392919062000248565b5060405180602001604052806000815250600990805190602001906200016b92919062000248565b5060405180602001604052806000815250600a90805190602001906200019392919062000248565b5060405180602001604052806000815250600b9080519060200190620001bb92919062000248565b5060405180602001604052806000815250600c9080519060200190620001e392919062000248565b5060405180602001604052806000815250600d90805190602001906200020b92919062000248565b5060405180602001604052806000815250600e90805190602001906200023392919062000248565b503480156200024157600080fd5b50620002f7565b828054600181600116156101000203166002900490600052602060002090601f016020900481019282601f106200028b57805160ff1916838001178555620002bc565b82800160010185558215620002bc579182015b82811115620002bb5782518255916020019190600101906200029e565b5b509050620002cb9190620002cf565b5090565b620002f491905b80821115620002f0576000816000905550600101620002d6565b5090565b90565b613a4980620003076000396000f3fe608060405234801561001057600080fd5b50600436106101da5760003560e01c8063680baeb81161010457806393452a4c116100a2578063f212e26511610071578063f212e26514611a83578063f3ccaac014611b3e578063f99ab8e214611bc1578063fcd7285514611c44576101da565b806393452a4c14610fc4578063c47f002714611047578063d083959a14611102578063dc56d26d14611185576101da565b806379caad86116100de57806379caad8614610d485780638140d0dc14610dcb5780639098ca1b14610e8657806390c3f38f14610f09576101da565b8063680baeb814610b7357806371adb5e614610bd257806372fb6cbf14610c8d576101da565b806339d498121161017c578063615dac4e1161014b578063615dac4e1461089857806361d207bb1461091b578063642ccbac1461099e578063668a00df14610af0576101da565b806339d498121461061c5780633a36399e1461069f578063497a3ffb14610722578063501bc1f8146107dd576101da565b80631fc6ecec116101b85780631fc6ecec146103a0578063212f5baa1461042357806323f9a9a9146104de57806333a8c45a14610599576101da565b80630599c284146101df57806306fdde031461029a5780631785c5061461031d575b600080fd5b610298600480360360208110156101f557600080fd5b810190808035906020019064010000000081111561021257600080fd5b82018360208201111561022457600080fd5b8035906020019184600183028401116401000000008311171561024657600080fd5b91908080601f016020809104026020016040519081016040528093929190818152602001838380828437600081840152601f19601f820116905080830192505050505050509192919290505050611cc7565b005b6102a2611d49565b6040518080602001828103825283818151815260200191508051906020019080838360005b838110156102e25780820151818401526020810190506102c7565b50505050905090810190601f16801561030f5780820380516001836020036101000a031916815260200191505b509250505060405180910390f35b610325611de7565b6040518080602001828103825283818151815260200191508051906020019080838360005b8381101561036557808201518184015260208101905061034a565b50505050905090810190601f1680156103925780820380516001836020036101000a031916815260200191505b509250505060405180910390f35b6103a8611e89565b6040518080602001828103825283818151815260200191508051906020019080838360005b838110156103e85780820151818401526020810190506103cd565b50505050905090810190601f1680156104155780820380516001836020036101000a031916815260200191505b509250505060405180910390f35b6104dc6004803603602081101561043957600080fd5b810190808035906020019064010000000081111561045657600080fd5b82018360208201111561046857600080fd5b8035906020019184600183028401116401000000008311171561048a57600080fd5b91908080601f016020809104026020016040519081016040528093929190818152602001838380828437600081840152601f19601f820116905080830192505050505050509192919290505050611f2b565b005b610597600480360360208110156104f457600080fd5b810190808035906020019064010000000081111561051157600080fd5b82018360208201111561052357600080fd5b8035906020019184600183028401116401000000008311171561054557600080fd5b91908080601f016020809104026020016040519081016040528093929190818152602001838380828437600081840152601f19601f820116905080830192505050505050509192919290505050611fad565b005b6105a161202f565b6040518080602001828103825283818151815260200191508051906020019080838360005b838110156105e15780820151818401526020810190506105c6565b50505050905090810190601f16801561060e5780820380516001836020036101000a031916815260200191505b509250505060405180910390f35b6106246120cd565b6040518080602001828103825283818151815260200191508051906020019080838360005b83811015610664578082015181840152602081019050610649565b50505050905090810190601f1680156106915780820380516001836020036101000a031916815260200191505b509250505060405180910390f35b6106a761216b565b6040518080602001828103825283818151815260200191508051906020019080838360005b838110156106e75780820151818401526020810190506106cc565b50505050905090810190601f1680156107145780820380516001836020036101000a031916815260200191505b509250505060405180910390f35b6107db6004803603602081101561073857600080fd5b810190808035906020019064010000000081111561075557600080fd5b82018360208201111561076757600080fd5b8035906020019184600183028401116401000000008311171561078957600080fd5b91908080601f016020809104026020016040519081016040528093929190818152602001838380828437600081840152601f19601f820116905080830192505050505050509192919290505050612209565b005b610896600480360360208110156107f357600080fd5b810190808035906020019064010000000081111561081057600080fd5b82018360208201111561082257600080fd5b8035906020019184600183028401116401000000008311171561084457600080fd5b91908080601f016020809104026020016040519081016040528093929190818152602001838380828437600081840152601f19601f82011690508083019250505050505050919291929050505061228b565b005b6108a061230d565b6040518080602001828103825283818151815260200191508051906020019080838360005b838110156108e05780820151818401526020810190506108c5565b50505050905090810190601f16801561090d5780820380516001836020036101000a031916815260200191505b509250505060405180910390f35b6109236123ab565b6040518080602001828103825283818151815260200191508051906020019080838360005b83811015610963578082015181840152602081019050610948565b50505050905090810190601f1680156109905780820380516001836020036101000a031916815260200191505b509250505060405180910390f35b610aee600480360360408110156109b457600080fd5b81019080803590602001906401000000008111156109d157600080fd5b8201836020820111156109e357600080fd5b80359060200191846001830284011164010000000083111715610a0557600080fd5b91908080601f016020809104026020016040519081016040528093929190818152602001838380828437600081840152601f19601f82011690508083019250505050505050919291929080359060200190640100000000811115610a6857600080fd5b820183602082011115610a7a57600080fd5b80359060200191846001830284011164010000000083111715610a9c57600080fd5b91908080601f016020809104026020016040519081016040528093929190818152602001838380828437600081840152601f19601f820116905080830192505050505050509192919290505050612449565b005b610af8612686565b6040518080602001828103825283818151815260200191508051906020019080838360005b83811015610b38578082015181840152602081019050610b1d565b50505050905090810190601f168015610b655780820380516001836020036101000a031916815260200191505b509250505060405180910390f35b610b7b612724565b6040518080602001828103825283818151815260200191508051906020019060200280838360005b83811015610bbe578082015181840152602081019050610ba3565b505050509050019250505060405180910390f35b610c8b60048036036020811015610be857600080fd5b8101908080359060200190640100000000811115610c0557600080fd5b820183602082011115610c1757600080fd5b80359060200191846001830284011164010000000083111715610c3957600080fd5b91908080601f016020809104026020016040519081016040528093929190818152602001838380828437600081840152601f19601f8201169050808301925050505050505091929192905050506127b2565b005b610d4660048036036020811015610ca357600080fd5b8101908080359060200190640100000000811115610cc057600080fd5b820183602082011115610cd257600080fd5b80359060200191846001830284011164010000000083111715610cf457600080fd5b91908080601f016020809104026020016040519081016040528093929190818152602001838380828437600081840152601f19601f820116905080830192505050505050509192919290505050612834565b005b610d506128b6565b6040518080602001828103825283818151815260200191508051906020019080838360005b83811015610d90578082015181840152602081019050610d75565b50505050905090810190601f168015610dbd5780820380516001836020036101000a031916815260200191505b509250505060405180910390f35b610e8460048036036020811015610de157600080fd5b8101908080359060200190640100000000811115610dfe57600080fd5b820183602082011115610e1057600080fd5b80359060200191846001830284011164010000000083111715610e3257600080fd5b91908080601f016020809104026020016040519081016040528093929190818152602001838380828437600081840152601f19601f820116905080830192505050505050509192919290505050612954565b005b610e8e6129d6565b6040518080602001828103825283818151815260200191508051906020019080838360005b83811015610ece578082015181840152602081019050610eb3565b50505050905090810190601f168015610efb5780820380516001836020036101000a031916815260200191505b509250505060405180910390f35b610fc260048036036020811015610f1f57600080fd5b8101908080359060200190640100000000811115610f3c57600080fd5b820183602082011115610f4e57600080fd5b80359060200191846001830284011164010000000083111715610f7057600080fd5b91908080601f016020809104026020016040519081016040528093929190818152602001838380828437600081840152601f19601f820116905080830192505050505050509192919290505050612a74565b005b610fcc612af6565b6040518080602001828103825283818151815260200191508051906020019080838360005b8381101561100c578082015181840152602081019050610ff1565b50505050905090810190601f1680156110395780820380516001836020036101000a031916815260200191505b509250505060405180910390f35b6111006004803603602081101561105d57600080fd5b810190808035906020019064010000000081111561107a57600080fd5b82018360208201111561108c57600080fd5b803590602001918460018302840111640100000000831117156110ae57600080fd5b91908080601f016020809104026020016040519081016040528093929190818152602001838380828437600081840152601f19601f820116905080830192505050505050509192919290505050612b94565b005b61110a612c16565b6040518080602001828103825283818151815260200191508051906020019080838360005b8381101561114a57808201518184015260208101905061112f565b50505050905090810190601f1680156111775780820380516001836020036101000a031916815260200191505b509250505060405180910390f35b611a8160048036036101e081101561119c57600080fd5b81019080803590602001906401000000008111156111b957600080fd5b8201836020820111156111cb57600080fd5b803590602001918460018302840111640100000000831117156111ed57600080fd5b91908080601f016020809104026020016040519081016040528093929190818152602001838380828437600081840152601f19601f8201169050808301925050505050505091929192908035906020019064010000000081111561125057600080fd5b82018360208201111561126257600080fd5b8035906020019184600183028401116401000000008311171561128457600080fd5b91908080601f016020809104026020016040519081016040528093929190818152602001838380828437600081840152601f19601f820116905080830192505050505050509192919290803590602001906401000000008111156112e757600080fd5b8201836020820111156112f957600080fd5b8035906020019184600183028401116401000000008311171561131b57600080fd5b91908080601f016020809104026020016040519081016040528093929190818152602001838380828437600081840152601f19601f8201169050808301925050505050505091929192908035906020019064010000000081111561137e57600080fd5b82018360208201111561139057600080fd5b803590602001918460018302840111640100000000831117156113b257600080fd5b91908080601f016020809104026020016040519081016040528093929190818152602001838380828437600081840152601f19601f8201169050808301925050505050505091929192908035906020019064010000000081111561141557600080fd5b82018360208201111561142757600080fd5b8035906020019184600183028401116401000000008311171561144957600080fd5b91908080601f016020809104026020016040519081016040528093929190818152602001838380828437600081840152601f19601f820116905080830192505050505050509192919290803590602001906401000000008111156114ac57600080fd5b8201836020820111156114be57600080fd5b803590602001918460018302840111640100000000831117156114e057600080fd5b91908080601f016020809104026020016040519081016040528093929190818152602001838380828437600081840152601f19601f8201169050808301925050505050505091929192908035906020019064010000000081111561154357600080fd5b82018360208201111561155557600080fd5b8035906020019184600183028401116401000000008311171561157757600080fd5b91908080601f016020809104026020016040519081016040528093929190818152602001838380828437600081840152601f19601f820116905080830192505050505050509192919290803590602001906401000000008111156115da57600080fd5b8201836020820111156115ec57600080fd5b8035906020019184600183028401116401000000008311171561160e57600080fd5b91908080601f016020809104026020016040519081016040528093929190818152602001838380828437600081840152601f19601f8201169050808301925050505050505091929192908035906020019064010000000081111561167157600080fd5b82018360208201111561168357600080fd5b803590602001918460018302840111640100000000831117156116a557600080fd5b91908080601f016020809104026020016040519081016040528093929190818152602001838380828437600081840152601f19601f8201169050808301925050505050505091929192908035906020019064010000000081111561170857600080fd5b82018360208201111561171a57600080fd5b8035906020019184600183028401116401000000008311171561173c57600080fd5b91908080601f016020809104026020016040519081016040528093929190818152602001838380828437600081840152601f19601f8201169050808301925050505050505091929192908035906020019064010000000081111561179f57600080fd5b8201836020820111156117b157600080fd5b803590602001918460018302840111640100000000831117156117d357600080fd5b91908080601f016020809104026020016040519081016040528093929190818152602001838380828437600081840152601f19601f8201169050808301925050505050505091929192908035906020019064010000000081111561183657600080fd5b82018360208201111561184857600080fd5b8035906020019184600183028401116401000000008311171561186a57600080fd5b91908080601f016020809104026020016040519081016040528093929190818152602001838380828437600081840152601f19601f820116905080830192505050505050509192919290803590602001906401000000008111156118cd57600080fd5b8201836020820111156118df57600080fd5b8035906020019184600183028401116401000000008311171561190157600080fd5b91908080601f016020809104026020016040519081016040528093929190818152602001838380828437600081840152601f19601f8201169050808301925050505050505091929192908035906020019064010000000081111561196457600080fd5b82018360208201111561197657600080fd5b8035906020019184600183028401116401000000008311171561199857600080fd5b91908080601f016020809104026020016040519081016040528093929190818152602001838380828437600081840152601f19601f820116905080830192505050505050509192919290803590602001906401000000008111156119fb57600080fd5b820183602082011115611a0d57600080fd5b80359060200191846001830284011164010000000083111715611a2f57600080fd5b91908080601f016020809104026020016040519081016040528093929190818152602001838380828437600081840152601f19601f820116905080830192505050505050509192919290505050612cb4565b005b611b3c60048036036020811015611a9957600080fd5b8101908080359060200190640100000000811115611ab657600080fd5b820183602082011115611ac857600080fd5b80359060200191846001830284011164010000000083111715611aea57600080fd5b91908080601f016020809104026020016040519081016040528093929190818152602001838380828437600081840152601f19601f820116905080830192505050505050509192919290505050613040565b005b611b466130c2565b6040518080602001828103825283818151815260200191508051906020019080838360005b83811015611b86578082015181840152602081019050611b6b565b50505050905090810190601f168015611bb35780820380516001836020036101000a031916815260200191505b509250505060405180910390f35b611bc9613160565b6040518080602001828103825283818151815260200191508051906020019080838360005b83811015611c09578082015181840152602081019050611bee565b50505050905090810190601f168015611c365780820380516001836020036101000a031916815260200191505b509250505060405180910390f35b611c4c6131fe565b6040518080602001828103825283818151815260200191508051906020019080838360005b83811015611c8c578082015181840152602081019050611c71565b50505050905090810190601f168015611cb95780820380516001836020036101000a031916815260200191505b509250505060405180910390f35b80600a9080519060200190611cdd92919061329c565b507f7c17688976694d85624217bcad577e24ddf45c144eba4cb83c56d5e6c581760c60405180806020018281038252600d8152602001807f616464726573732061646465640000000000000000000000000000000000000081525060200191505060405180910390a150565b60008054600181600116156101000203166002900480601f016020809104026020016040519081016040528092919081815260200182805460018160011615610100020316600290048015611ddf5780601f10611db457610100808354040283529160200191611ddf565b820191906000526020600020905b815481529060010190602001808311611dc257829003601f168201915b505050505081565b606060088054600181600116156101000203166002900480601f016020809104026020016040519081016040528092919081815260200182805460018160011615610100020316600290048015611e7f5780601f10611e5457610100808354040283529160200191611e7f565b820191906000526020600020905b815481529060010190602001808311611e6257829003601f168201915b5050505050905090565b606060078054600181600116156101000203166002900480601f016020809104026020016040519081016040528092919081815260200182805460018160011615610100020316600290048015611f215780601f10611ef657610100808354040283529160200191611f21565b820191906000526020600020905b815481529060010190602001808311611f0457829003601f168201915b5050505050905090565b8060089080519060200190611f4192919061329c565b507f7c17688976694d85624217bcad577e24ddf45c144eba4cb83c56d5e6c581760c60405180806020018281038252600f8152602001807f70687973696369616e206164646564000000000000000000000000000000000081525060200191505060405180910390a150565b8060099080519060200190611fc392919061329c565b507f7c17688976694d85624217bcad577e24ddf45c144eba4cb83c56d5e6c581760c60405180806020018281038252600c8152602001807f616164686172206164646564000000000000000000000000000000000000000081525060200191505060405180910390a150565b600b8054600181600116156101000203166002900480601f0160208091040260200160405190810160405280929190818152602001828054600181600116156101000203166002900480156120c55780601f1061209a576101008083540402835291602001916120c5565b820191906000526020600020905b8154815290600101906020018083116120a857829003601f168201915b505050505081565b60088054600181600116156101000203166002900480601f0160208091040260200160405190810160405280929190818152602001828054600181600116156101000203166002900480156121635780601f1061213857610100808354040283529160200191612163565b820191906000526020600020905b81548152906001019060200180831161214657829003601f168201915b505050505081565b600a8054600181600116156101000203166002900480601f0160208091040260200160405190810160405280929190818152602001828054600181600116156101000203166002900480156122015780601f106121d657610100808354040283529160200191612201565b820191906000526020600020905b8154815290600101906020018083116121e457829003601f168201915b505050505081565b806005908051906020019061221f92919061329c565b507f7c17688976694d85624217bcad577e24ddf45c144eba4cb83c56d5e6c581760c60405180806020018281038252601a8152602001807f64617465206f662061646d697373696f6e206368616e6765642e00000000000081525060200191505060405180910390a150565b80600190805190602001906122a192919061329c565b507f7c17688976694d85624217bcad577e24ddf45c144eba4cb83c56d5e6c581760c6040518080602001828103825260138152602001807f646174654f664269727468206368616e6765640000000000000000000000000081525060200191505060405180910390a150565b60018054600181600116156101000203166002900480601f0160208091040260200160405190810160405280929190818152602001828054600181600116156101000203166002900480156123a35780601f10612378576101008083540402835291602001916123a3565b820191906000526020600020905b81548152906001019060200180831161238657829003601f168201915b505050505081565b60058054600181600116156101000203166002900480601f0160208091040260200160405190810160405280929190818152602001828054600181600116156101000203166002900480156124415780601f1061241657610100808354040283529160200191612441565b820191906000526020600020905b81548152906001019060200180831161242457829003601f168201915b505050505081565b60006040516124579061331c565b604051809103906000f080158015612473573d6000803e3d6000fd5b5090508073ffffffffffffffffffffffffffffffffffffffff16630ea0218584846040518363ffffffff1660e01b8152600401808060200180602001838103835285818151815260200191508051906020019080838360005b838110156124e75780820151818401526020810190506124cc565b50505050905090810190601f1680156125145780820380516001836020036101000a031916815260200191505b50838103825284818151815260200191508051906020019080838360005b8381101561254d578082015181840152602081019050612532565b50505050905090810190601f16801561257a5780820380516001836020036101000a031916815260200191505b50945050505050600060405180830381600087803b15801561259b57600080fd5b505af11580156125af573d6000803e3d6000fd5b5050505060048190806001815401808255809150509060018203906000526020600020016000909192909190916101000a81548173ffffffffffffffffffffffffffffffffffffffff021916908373ffffffffffffffffffffffffffffffffffffffff160217905550507f7c17688976694d85624217bcad577e24ddf45c144eba4cb83c56d5e6c581760c60405180806020018281038252600f8152602001807f636f6e646974696f6e206164646564000000000000000000000000000000000081525060200191505060405180910390a1505050565b600e8054600181600116156101000203166002900480601f01602080910402602001604051908101604052809291908181526020018280546001816001161561010002031660029004801561271c5780601f106126f15761010080835404028352916020019161271c565b820191906000526020600020905b8154815290600101906020018083116126ff57829003601f168201915b505050505081565b606060048054806020026020016040519081016040528092919081815260200182805480156127a857602002820191906000526020600020905b8160009054906101000a900473ffffffffffffffffffffffffffffffffffffffff1673ffffffffffffffffffffffffffffffffffffffff168152602001906001019080831161275e575b5050505050905090565b80600390805190602001906127c892919061329c565b507f7c17688976694d85624217bcad577e24ddf45c144eba4cb83c56d5e6c581760c60405180806020018281038252600d8152602001807f696d616765206368616e6765640000000000000000000000000000000000000081525060200191505060405180910390a150565b806007908051906020019061284a92919061329c565b507f7c17688976694d85624217bcad577e24ddf45c144eba4cb83c56d5e6c581760c60405180806020018281038252600d8152602001807f616c6c657267792061646465640000000000000000000000000000000000000081525060200191505060405180910390a150565b60028054600181600116156101000203166002900480601f01602080910402602001604051908101604052809291908181526020018280546001816001161561010002031660029004801561294c5780601f106129215761010080835404028352916020019161294c565b820191906000526020600020905b81548152906001019060200180831161292f57829003601f168201915b505050505081565b80600b908051906020019061296a92919061329c565b507f7c17688976694d85624217bcad577e24ddf45c144eba4cb83c56d5e6c581760c60405180806020018281038252600d8152602001807f636f6e746163742061646465640000000000000000000000000000000000000081525060200191505060405180910390a150565b60068054600181600116156101000203166002900480601f016020809104026020016040519081016040528092919081815260200182805460018160011615610100020316600290048015612a6c5780601f10612a4157610100808354040283529160200191612a6c565b820191906000526020600020905b815481529060010190602001808311612a4f57829003601f168201915b505050505081565b8060069080519060200190612a8a92919061329c565b507f7c17688976694d85624217bcad577e24ddf45c144eba4cb83c56d5e6c581760c60405180806020018281038252601d8152602001807f436f6e646974696f6e206465736372697074696f6e206368616e67656400000081525060200191505060405180910390a150565b60078054600181600116156101000203166002900480601f016020809104026020016040519081016040528092919081815260200182805460018160011615610100020316600290048015612b8c5780601f10612b6157610100808354040283529160200191612b8c565b820191906000526020600020905b815481529060010190602001808311612b6f57829003601f168201915b505050505081565b8060009080519060200190612baa92919061329c565b507f7c17688976694d85624217bcad577e24ddf45c144eba4cb83c56d5e6c581760c60405180806020018281038252600c8152602001807f6e616d65206368616e676564000000000000000000000000000000000000000081525060200191505060405180910390a150565b600d8054600181600116156101000203166002900480601f016020809104026020016040519081016040528092919081815260200182805460018160011615610100020316600290048015612cac5780601f10612c8157610100808354040283529160200191612cac565b820191906000526020600020905b815481529060010190602001808311612c8f57829003601f168201915b505050505081565b8e60009080519060200190612cca92919061329c565b508d60019080519060200190612ce192919061329c565b508c60029080519060200190612cf892919061329c565b506000604051612d079061331c565b604051809103906000f080158015612d23573d6000803e3d6000fd5b5090508073ffffffffffffffffffffffffffffffffffffffff16630ea021858e8f6040518363ffffffff1660e01b8152600401808060200180602001838103835285818151815260200191508051906020019080838360005b83811015612d97578082015181840152602081019050612d7c565b50505050905090810190601f168015612dc45780820380516001836020036101000a031916815260200191505b50838103825284818151815260200191508051906020019080838360005b83811015612dfd578082015181840152602081019050612de2565b50505050905090810190601f168015612e2a5780820380516001836020036101000a031916815260200191505b50945050505050600060405180830381600087803b158015612e4b57600080fd5b505af1158015612e5f573d6000803e3d6000fd5b5050505060048190806001815401808255809150509060018203906000526020600020016000909192909190916101000a81548173ffffffffffffffffffffffffffffffffffffffff021916908373ffffffffffffffffffffffffffffffffffffffff160217905550508b60069080519060200190612edf92919061329c565b508a60079080519060200190612ef692919061329c565b508960089080519060200190612f0d92919061329c565b508860099080519060200190612f2492919061329c565b5087600a9080519060200190612f3b92919061329c565b5086600b9080519060200190612f5292919061329c565b508560059080519060200190612f6992919061329c565b5084600c9080519060200190612f8092919061329c565b5083600d9080519060200190612f9792919061329c565b5082600e9080519060200190612fae92919061329c565b508160039080519060200190612fc592919061329c565b507f7c17688976694d85624217bcad577e24ddf45c144eba4cb83c56d5e6c581760c60405180806020018281038252600f8152602001807f50617469656e74204368616e676564000000000000000000000000000000000081525060200191505060405180910390a150505050505050505050505050505050565b806002908051906020019061305692919061329c565b507f7c17688976694d85624217bcad577e24ddf45c144eba4cb83c56d5e6c581760c60405180806020018281038252600e8152602001807f67656e646572206368616e67656400000000000000000000000000000000000081525060200191505060405180910390a150565b60038054600181600116156101000203166002900480601f0160208091040260200160405190810160405280929190818152602001828054600181600116156101000203166002900480156131585780601f1061312d57610100808354040283529160200191613158565b820191906000526020600020905b81548152906001019060200180831161313b57829003601f168201915b505050505081565b60098054600181600116156101000203166002900480601f0160208091040260200160405190810160405280929190818152602001828054600181600116156101000203166002900480156131f65780601f106131cb576101008083540402835291602001916131f6565b820191906000526020600020905b8154815290600101906020018083116131d957829003601f168201915b505050505081565b600c8054600181600116156101000203166002900480601f0160208091040260200160405190810160405280929190818152602001828054600181600116156101000203166002900480156132945780601f1061326957610100808354040283529160200191613294565b820191906000526020600020905b81548152906001019060200180831161327757829003601f168201915b505050505081565b828054600181600116156101000203166002900490600052602060002090601f016020900481019282601f106132dd57805160ff191683800117855561330b565b8280016001018555821561330b579182015b8281111561330a5782518255916020019190600101906132ef565b5b5090506133189190613329565b5090565b6106c68061334f83390190565b61334b91905b8082111561334757600081600090555060010161332f565b5090565b9056fe608060405234801561001057600080fd5b506106a6806100206000396000f3fe608060405234801561001057600080fd5b50600436106100575760003560e01c80630ea021851461005c57806355f150f1146101ae57806387e4396c146102315780639614c769146102ec578063af640d0f146103a7575b600080fd5b6101ac6004803603604081101561007257600080fd5b810190808035906020019064010000000081111561008f57600080fd5b8201836020820111156100a157600080fd5b803590602001918460018302840111640100000000831117156100c357600080fd5b91908080601f016020809104026020016040519081016040528093929190818152602001838380828437600081840152601f19601f8201169050808301925050505050505091929192908035906020019064010000000081111561012657600080fd5b82018360208201111561013857600080fd5b8035906020019184600183028401116401000000008311171561015a57600080fd5b91908080601f016020809104026020016040519081016040528093929190818152602001838380828437600081840152601f19601f82011690508083019250505050505050919291929050505061042a565b005b6101b661045c565b6040518080602001828103825283818151815260200191508051906020019080838360005b838110156101f65780820151818401526020810190506101db565b50505050905090810190601f1680156102235780820380516001836020036101000a031916815260200191505b509250505060405180910390f35b6102ea6004803603602081101561024757600080fd5b810190808035906020019064010000000081111561026457600080fd5b82018360208201111561027657600080fd5b8035906020019184600183028401116401000000008311171561029857600080fd5b91908080601f016020809104026020016040519081016040528093929190818152602001838380828437600081840152601f19601f8201169050808301925050505050505091929192905050506104fa565b005b6103a56004803603602081101561030257600080fd5b810190808035906020019064010000000081111561031f57600080fd5b82018360208201111561033157600080fd5b8035906020019184600183028401116401000000008311171561035357600080fd5b91908080601f016020809104026020016040519081016040528093929190818152602001838380828437600081840152601f19601f820116905080830192505050505050509192919290505050610514565b005b6103af61052e565b6040518080602001828103825283818151815260200191508051906020019080838360005b838110156103ef5780820151818401526020810190506103d4565b50505050905090810190601f16801561041c5780820380516001836020036101000a031916815260200191505b509250505060405180910390f35b81600090805190602001906104409291906105cc565b5080600190805190602001906104579291906105cc565b505050565b60018054600181600116156101000203166002900480601f0160208091040260200160405190810160405280929190818152602001828054600181600116156101000203166002900480156104f25780601f106104c7576101008083540402835291602001916104f2565b820191906000526020600020905b8154815290600101906020018083116104d557829003601f168201915b505050505081565b80600090805190602001906105109291906105cc565b5050565b806001908051906020019061052a9291906105cc565b5050565b60008054600181600116156101000203166002900480601f0160208091040260200160405190810160405280929190818152602001828054600181600116156101000203166002900480156105c45780601f10610599576101008083540402835291602001916105c4565b820191906000526020600020905b8154815290600101906020018083116105a757829003601f168201915b505050505081565b828054600181600116156101000203166002900490600052602060002090601f016020900481019282601f1061060d57805160ff191683800117855561063b565b8280016001018555821561063b579182015b8281111561063a57825182559160200191906001019061061f565b5b509050610648919061064c565b5090565b61066e91905b8082111561066a576000816000905550600101610652565b5090565b9056fea265627a7a723158201445c79d26752958a32a000e0664b207893114d1f7ecb6a9a255d34b4d73b89c64736f6c63430005100032a265627a7a72315820206025affbc41d381b96b4bd0ddd56a425982a316db780875512d50ee380963a64736f6c63430005100032",
  "source": "pragma solidity >=0.4.2;\nimport \"./Condition.sol\";\n\ncontract Patient {\n\n\n  string public name = \"\";\n  string public dateOfBirth = \"\";\n  string public gender = \"\" ;\n  string public image =\"\";\n  address[] conditions;\n  string public dateOfAdmission=\"\";\n  string public conditionDesc=\"\";\n  string public allergies=\"\";\n  string public physician=\"\";\n  string public aadhar=\"\";\n  string public address1=\"\";\n  string public contact=\"\";\n  string public hospName=\"\";\n  string public bedNo=\"\";\n  string public EHRDate=\"\";\n  // Event that is fired when patient is changed\n  event patientChanged(string whatChanged);\n\n  //function Patient() public{\n  //  conditions = new Condition[](10);\n//name = \"Patient 1\";\n // }\n\n  // FAMILY^GIVEN^MIDDLE\n  function setName(string memory _name) public{\n    name = _name;\n   emit patientChanged(\"name changed\"); // fire the event\n  }\n  // YYYYMMDD\n  function setDateOfBirth(string memory _dateOfBirth) public{\n    dateOfBirth = _dateOfBirth;\n   emit patientChanged(\"dateOfBirth changed\"); // fire the event\n  }\n  // M,F,U,O\n  function setGender(string memory _gender) public{\n    gender = _gender;\n   emit patientChanged(\"gender changed\"); // fire the event\n  }\nfunction setImage(string memory _image) public{\n    image = _image;\n   emit patientChanged(\"image changed\"); // fire the event\n  }\nfunction setDateOfAdmission(string memory _dateOfAdmission) public {\ndateOfAdmission=_dateOfAdmission;\nemit patientChanged(\"date of admission changed.\");\n}\n\n  function setPatient(string memory _name, string memory _dateOfBirth, string memory _gender, string memory _condition, string memory _conditionDesc, string memory _allergies, string memory _physician, string memory _aadhar, string memory _address1,string memory _contact,string memory _dateOfAdmission,string memory _hospName, string memory _bedNo, string memory _EHRDate, string memory _image) public{\n    name = _name;\n    dateOfBirth = _dateOfBirth;\n    gender = _gender;\n    Condition c = new Condition();\n    c.Condition1(_condition, _condition);\n    conditions.push(address(c));\n    conditionDesc=_conditionDesc;\n    allergies=_allergies;\n    physician=_physician;\n   aadhar=_aadhar;\n   address1=_address1;\n   contact=_contact;\n   dateOfAdmission=_dateOfAdmission;\n   hospName=_hospName;\n   bedNo=_bedNo;\n   EHRDate=_EHRDate;\n   image=_image;\n   emit patientChanged(\"Patient Changed\"); // fire the event\n  }\n  \n  function setDescription(string memory _conditionDesc) public{\n    conditionDesc=_conditionDesc;\n    emit patientChanged(\"Condition description changed\");\n }\n  function addCondition(string memory _id, string memory _desc) public{\n    Condition c = new Condition();\n    c.Condition1(_id,_desc);\n    conditions.push(address(c));\n   emit patientChanged(\"condition added\");\n  }\n  \n  function getCondition() public returns (address[] memory ) {\n    return conditions;\n  }\n function getAllergy() public view returns (string memory ) {\n    return allergies;\n  }\nfunction getPhysician() public view returns (string memory ) {\n    return physician;\n  }\nfunction setAllergies(string memory _allergies) public{\n     allergies=_allergies;\n     emit patientChanged(\"allergy added\");\n  }\n  function setPhysician(string memory _physician) public{\n    physician=_physician;\n    emit patientChanged(\"physician added\");\n  }\n function setAadhar(string memory _aadhar) public{\n    aadhar=_aadhar;\n    emit patientChanged(\"aadhar added\");\n  }\n  function setAddress(string memory _address1) public{\n    address1=_address1;\n    emit patientChanged(\"address added\");\n  }\n   function setContact(string memory _contact) public{\n    contact=_contact;\n    emit patientChanged(\"contact added\");\n  }\n \n}\n",
  "sourcePath": "/home/obu/Desktop/CIP/eHealthFinalNew/contracts/Patient.sol",
  "compiler": {
    "name": "solc",
    "version": "0.5.16+commit.9c3226ce.Emscripten.clang"
  },
  "schemaVersion": "3.0.23",
  "updatedAt": "2021-03-25T12:35:57.916Z",
  "networkType": "ethereum",
  "devdoc": {
    "methods": {}
  },
  "userdoc": {
    "methods": {}
  }
}